:100000000C9434000C943E000C943E000C943E0082
:100010000C943E000C943E000C943E000C943E0068
:100020000C943E000C943E000C943E000C943E0058
:100030000C943E000C943E000C943E000C943E0048
:100040000C943E000C943E000C943E000C943E0038
:100050000C943E000C943E000C943E000C943E0028
:100060000C943E000C943E0011241FBECFEFD8E04C
:10007000DEBFCDBF0E9473010C948B010C94000075
:1000800037B12AB187B1886387B943984598449AB4
:10009000439A579802C04398439A4F99FCCF84E003
:1000A00090E00197F1F737B92AB90895CF93DF931C
:1000B000D7B1CAB19FEF97B99AB943988BB9459810
:1000C0004498439A0E944000D7B9CAB9DF91CF91B2
:1000D000089547B13AB12FEF27B92AB94598449806
:1000E0004398806F9F6F8BB9439A80E699E0FC013B
:1000F0003197F1F7439820EF2BB9439A0197F1F725
:1001000047B93AB908951F93CF93DF93C82F17B11A
:10011000DAB19FEF97B99AB9CB0180680E94560077
:100120004398CBB9459A4498439A0E94400017B926
:10013000DAB9DF91CF911F910895EF92FF92CF939B
:10014000DF937C01D7B1CAB18FEF87B98AB9CB01F0
:1001500080680E946900459A4498439880EFE82A95
:10016000FF24FA94EBB8439A80E699E00197F1F7FF
:10017000439880EF8BB9439AD7B9CAB9DF91CF9131
:10018000FF90EF900895CF92DF92EF92FF927C0163
:100190008FEF87B98AB92FE782E392E02150804040
:1001A0009040E1F700C0000080E390E00E9456001C
:1001B00080E190E40197F1F780E390E00E9456001F
:1001C00080E9C82EDD24D394C6010197F1F780E3BE
:1001D00090E00E945600C6010197F1F728E0E21670
:1001E000F104C1F488E390E00E94560088E090E0BA
:1001F0000E94560081E090E00E94560086E090E068
:100200000E9456008CE090E0FF90EF90DF90CF903E
:100210000C94560084E0E816F10401F5439880E25E
:100220008BB9439A80E699E00197F1F788E390E073
:100230000E94560088E090E00E94690081E090E012
:100240000E94690086E090E00E9469008CE090E0E6
:10025000FF90EF90DF90CF900C946900FF90EF90AB
:10026000DF90CF90089581E090E00C945600AF921B
:10027000BF92CF92DF92EF92FF925C010E94330116
:10028000E12CF12CC12CD12C21C090E1E916F10414
:1002900019F420E4C22ED12C8A3031F48FEFE81A01
:1002A000F80A90E4C92ED12CF501EE0DFF1DB60120
:1002B000808190E00E9483009FEFE91AF90A8FEF96
:1002C000C81AD80A90E2E916F10434F4F501EE0DEB
:1002D000FF1D80818111D9CFFF90EF90DF90CF90EB
:1002E000BF90AF90089584E090E00E94C30081E049
:1002F00090E00E94690060E070E081E490E00E947C
:100300009D002FEF89E698E1215080409040E1F771
:0A03100000C00000ECCFF894FFCF0E
:00000001FF
